:020000040800F2
:10000000285C0020F1020008CB0E0008870E0008D3
:10001000C90E0008E90B0008611C00080000000080
:10002000000000000000000000000000390200088D
:10003000E90D0008000000008D020008F914000816
:100040000B0300080B0300080B0300080B03000858
:100050000B0300080B0300080B0300080B03000848
:100060000B0300080B0300080B0300080B03000838
:100070000B0300080B0300080B0300080B03000828
:100080000B0300080B0300080B0300080B03000818
:100090000B0300080B0300080B0300080B03000808
:1000A0000B0300080B0300080B0300080B030008F8
:1000B0000B0300080B0300080B0300080B030008E8
:1000C0000B0300080B0300080B0300080B030008D8
:1000D0000B030008A11800087D1900080B03000895
:1000E0000B0300080B0300080B0300080B030008B8
:1000F0000B0300080B0300080B0300080B030008A8
:100100000B0300080B030008CD1500080B030008C3
:100110000B0300080B0300080B0300080B03000887
:100120000B0300080B0300080B0300080B03000877
:100130000B0300080B0300080B0300080B03000867
:100140000B0300080B0300080B0300080B03000857
:100150000B0300080B0300080B0300080B03000847
:100160000B0300080B0300080B0300080B03000837
:100170000B0300080B0300080B0300080B03000827
:100180000B0300080B03000800F002F800F044F82D
:100190000AA090E8000C82448344AAF10107DA45E2
:1001A00001D100F039F8AFF2090EBAE80F0013F0F0
:1001B000010F18BFFB1A43F001031847443E00002B
:1001C000643E0000103A24BF78C878C1FAD85207BC
:1001D00024BF30C830C144BF04680C6070470000C1
:1001E0000023002400250026103A28BF78C1FBD840
:1001F000520728BF30C148BF0B607047642900F028
:100200000381732900F01082002070471FB503F0AE
:10021000DFFE1FBD10B510BD00F09BFA1146FFF7C1
:10022000F5FF01F0BBFE00F0B9FA03B4FFF7F2FFEF
:1002300003BC01F016FD00002A4B19680868B0E8FD
:10024000F04F80F30988BFF36F8F4FF0000080F309
:10025000118870470000000006480068006880F3BD
:10026000088862B661B6BFF34F8FBFF36F8F00DFB0
:1002700000BF00BF08ED00E0DFF80C00016841F4AA
:1002800070010160704700BF88ED00E0EFF3098066
:10029000BFF36F8F134B1A681EF0100F08BF20EDCD
:1002A000108A20E9F04F106008B44FF0500080F33E
:1002B0001188BFF34F8FBFF36F8F03F059F84FF0E2
:1002C000000080F3118808BC19680868B0E8F04F96
:1002D0001EF0100F08BFB0EC108A80F30988BFF33E
:1002E0006F8F70472C000020EFF3058070470000EF
:1002F0000948804709480047FEE7FEE7FEE7FEE7BA
:10030000FEE7FEE7FEE7FEE7FEE7FEE704480549F5
:10031000054A064B704700000D15000889010008CA
:1003200028560020285C002028580020285800204B
:10033000704700000FB4044910B503AA029800F0FA
:1003400077F910BC5DF814FB180000202DE9F0418E
:100350000E460446002020622046E168884730B3FC
:10036000252805D0D4E901219047206A401CF2E7F6
:10037000E168204600278847050018D0A5F1410014
:10038000192802D820354FF4006732462946204606
:100390002760FFF733FF40B1012804D0F61D26F097
:1003A00007060836D8E7361DD6E72846DAE7206A7A
:1003B000BDE8F08170B50C460546012A05D02878C5
:1003C000800600D5EA69002302E0012305E05B1CFA
:1003D000934202D2E05C0028F9D1A869E618C01A5D
:1003E000A861286A184428622846AFF3008004E018
:1003F000D5E9012114F8010B9047B442F8D32846FF
:10040000AFF3008070BD00002DE9F04106460024E6
:1004100010687529314616A510D0AFF3008000286A
:1004200002DA404213A507E031688A0701D512A518
:1004300002E0490704D511A5012401E0AFF30080D3
:1004400000210A2206F1240709E0B0FBF2FCB0FB10
:10045000F2F302FB1C00303078541846491C002887
:10046000F3D123462A463046BDE8F04100F059B8A2
:10047000000000002D0000002B0000002000000004
:10048000032A40F2308010F0030C00F0158011F8C0
:10049000013BBCF1020F624498BF11F801CB00F898
:1004A000013B38BF11F8013BA2F1040298BF00F8EC
:1004B00001CB38BF00F8013B11F0030300F0CA8004
:1004C000083AC0F0088051F8043B083A51F804CBD0
:1004D000A0E80810F5E7121D5CBF51F8043B40F896
:1004E000043BAFF30080D20724BF11F8013B11F8A1
:1004F00001CB48BF11F8012B24BF00F8013B00F8E5
:1005000001CB48BF00F8012B704702F0FF0343EA1C
:10051000032242EA024200F0D1B8704770477047A8
:1005200070472DE9F0470D4699469246044600F182
:1005300024080168880604D5E06921F010012160D3
:1005400000E00120A84201DD471B00E00027A1696F
:100550007A1902EB0900081AA0612078C00602D4BB
:100560002046AFF30080002608E0D4E901211AF804
:1005700006009047206A401C761C20624E45F4DB42
:100580002078C0060AD52046AFF3008006E0D4E903
:10059000012130209047206A401C2062381EA7F1BC
:1005A0000107F4DC07E0D4E9012118F805009047C1
:1005B000206A401C2062281EA5F10105F3DC2046BC
:1005C000AFF300802078000602D50220BDE8F08756
:1005D0000120FBE701694A1C02610878704700B5F9
:1005E0008FB0CDE901310021059105497944CDE96C
:1005F000031011466846FFF7A9FE0FB000BD0000CA
:10060000E5FFFFFF10B5436913B1AFF3008001E0D0
:10061000FFF7D0FE012010BD127800F124010A700E
:1006200000224A700122EDE711684FF0FF32E9E73E
:10063000074B70B50D467B44FFF7D1FF04462846B3
:1006400000F05CF810B14FF0FF3070BD204670BD77
:100650002F19000010B5203AC0F00B80B1E81850F7
:10066000203AA0E81850B1E81850A0E81850BFF49C
:10067000F5AF5FEA027C24BFB1E81850A0E818503B
:1006800044BF18C918C0BDE810405FEA827C24BF8F
:1006900051F8043B40F8043B08BF7047D20728BF1D
:1006A00031F8023B48BF11F8012B28BF20F8023B6C
:1006B00048BF00F8012B70474FF000020429C0F03A
:1006C000128010F0030C00F01F80CCF1040CBCF180
:1006D000020F18BF00F8012BA8BF20F8022BA1EBD6
:1006E0000C0100F011B85FEAC17C24BF00F8012BB7
:1006F00000F8012B48BF00F8012B7047007B00F089
:10070000800070474FF0000200B5134694469646AD
:10071000203922BFA0E80C50A0E80C50B1F1200114
:10072000BFF4F7AF090728BFA0E80C5048BF0CC0C2
:100730005DF804EB890028BF40F8042B08BF704720
:1007400048BF20F8022B11F0804F18BF00F8012B92
:100750007047754600F02CF8AE46050069465346D2
:1007600020F00700854618B020B5FFF7CFFDBDE8A3
:1007700020404FF000064FF000074FF000084FF008
:10078000000B21F00701AC46ACE8C009ACE8C00999
:10079000ACE8C009ACE8C0098D46704710B5044606
:1007A000AFF300802046BDE81040FFF73EBD0000DB
:1007B00000487047C855002000280DD0C16891ED51
:1007C000020A80ED050A016991ED0C0A80ED070A25
:1007D00091ED0D0A80ED060A7047000010B5040087
:1007E0002DED028B38D000209FED1D8A207084ED06
:1007F000088A01F0CFFB606001F0C0FBA06001F04F
:10080000C1FBE06001F0C2FB2061F0EE480AB1EEEE
:10081000040A144A002104F1380000F027FC114AB0
:10082000F0EE480AB1EE040A0C32002104F1800017
:1008300000F01CFC0B4AF0EE480AB2EE040A183233
:10084000002104F1C80000F011FCBDEC028B204631
:10085000BDE81040FFF7B0BFBDEC028B10BD00003B
:1008600000000000DC3F000870B504002DED068B91
:100870007DD020789FEDC48A03280DD09FEDC39AC8
:10088000DFEDC39ADFEDC38A98B104F1C8059FED8F
:10089000C2AA012846D09FE0B3EE090A84ED090AF6
:1008A00084ED0A0A84ED0B8A84ED0C8A84ED0D0A2E
:1008B000F6E06068B0F9021000EE101AB8EEC00A57
:1008C00070EE090AB0EE680A00EEA90A84ED090A82
:1008D000B0F9001000EE101AB8EEC00A70EE090A66
:1008E000B0EE680A00EEA90A84ED0A0AB0F9061013
:1008F000494200EE101AB8EEC00A70EE090AB0EED6
:10090000680A00EEA90A84ED0B0AB0F9040000EEB3
:10091000100AB8EEC00A30EE090A40EE298AC4ED8A
:100920000C8ABBE06068D4ED080AB0F9020000EE62
:10093000100AB8EEC01A9FED990A994941EE000AD3
:1009400010EE900AC4ED080A884201DDDFED950A39
:10095000C4ED080AF5EEC00AF1EE10FA01D2DFED9F
:10096000920A2846C4ED080A94ED050A00E007E162
:1009700000F0E8FA30EE0A0A84ED090A6068B0F97E
:10098000001000EE101AB8EEC00A70EE090AB0EEC0
:10099000680A00EEA90A84ED0A0AB0F90610494275
:1009A00000EE101AB8EEC00A70EE090AB0EE680A3E
:1009B00000EEA90A84ED0B0AB0F9040000EE100A5B
:1009C000B8EEC00A70EE090AB0EE680A00EEA90A95
:1009D00084ED0C0A84ED0D8A2078022860D194ED14
:1009E000050ADFED720A284600F0ACFA30EE0A0A7A
:1009F00004F1380104F1800584ED090A84ED0AAAA6
:100A0000206990ED0E0AD0ED0C0AB4EE600AF1EE0A
:100A100010FA08D190ED0F0AD0ED0D0AB4EE600A7D
:100A2000F1EE10FA16D094ED070ADFED610A0846E0
:100A300000F088FA30EE0A0A84ED0C0A94ED060AFA
:100A4000DFED5C0A284600F07DFA3AEE400A84EDBC
:100A50000B0A23E0084600F037FB284600F034FB81
:100A60006068F0EE680AB0F9041000EE101AB8EEF3
:100A7000C00A30EE090A40EE298AC4ED0C8AB0F9AA
:100A80000600F0EE608A404200EE100AB8EEC00A9E
:100A900030EE090A40EE298AC4ED0B8A84ED0D8AF6
:100AA00094ED090A444810EE101A814201DDB0EEBF
:100AB000480A10EE102A414984ED090A8A4201DAF7
:100AC000B3EE090A84ED090AD4ED0A0A10EE902A61
:100AD000824201DDF0EE480A10EE902AC4ED0A0AC7
:100AE0008A4201DAF3EE090AC4ED0A0AD4ED0B0AD0
:100AF00010EE902A824201DDF0EE480A10EE902AB4
:100B0000C4ED0B0A8A4201DAF3EE090AC4ED0B0ABE
:100B1000D4ED0C0A10EE902A824201DCB0EE608A1D
:100B200018EE100A84ED0C8A884201DAB3EE098AC5
:100B3000BDEEC00A84ED0C8AA16810EE100A887020
:100B400094ED0A0AA168BDEEC00A10EE100AC87042
:100B500094ED0B0AA168BDEEC00A10EE100A4870B1
:100B600094ED0C0AA168BDEEC00A10EE100A0870E0
:100B700094ED0D0AA168BDEEC00A10EE100A0871CE
:100B8000BDEC068B70BD00000000964200002544BD
:100B90002CD41A3D9A99C9410000484232337E381C
:100BA0000000C8420000C84200000000000070427F
:100BB000000020430000F042000096420000C841BF
:100BC00010B54FF4407000F0B3F9A82001F088F997
:100BD00000F05AF901F0F4F901F06AFF01F0B6F9FA
:100BE000BDE8104001F0E4B9FEE70000074A90427A
:100BF00001D2074801E005481038064A8B0001EA97
:100C0000020101D5C16070478160704710640240E5
:100C1000006002407D0F7D0F0029016802D041F085
:100C2000010101E021F00101016070472DE9F0436D
:100C3000016821F0010101600021016041608160D3
:100C4000C1600161212141613C493C4A3D25103987
:100C5000904202D18D60BDE8F083384A4FF474664B
:100C60001832904201D18E60F5E7344A4FF4741780
:100C70003032904201D18F60EDE7304A4FF0746C12
:100C80004832904202D1C1F808C0E4E72B4B2C4A0D
:100C90006033984201D1CA60DDE7284C294B783493
:100CA000A04201D1CB60D6E7DFF89080264C08F156
:100CB0009008404501D1CC60CDE7DFF880804FF04F
:100CC0003D5908F1A808404502D1C1F80C90C2E78F
:100CD0001E49DFF878800839404501D10D60BAE738
:100CE0001A4D1835A84201D10E60B4E7174D3035C2
:100CF000A84201D10F60AEE7144D4835A84202D199
:100D0000C1F800C0A7E7114D10496035091FA8427E
:100D100001D10A609FE70D4A7832904201D10B6001
:100D200099E70A4A9032904201D10C6093E7074A52
:100D3000A83290428FD1C1F800908CE71060024039
:100D40003D000020400F002000003D2010640240C4
:100D50000029016802D041F4802101E021F48021C2
:100D600001607047002A026802D042F4002201E0CC
:100D700022F40022026001617047406880B270472F
:100D8000014600200968090300D5012070470000D2
:100D900030B50368124ACC6813400A682243D1E98F
:100DA00005452C432243CC6922430C6A22434C6AFA
:100DB00022438C6A22434C6B22438C6B22431A439E
:100DC0000260426922F00703D1E90B2422431A434F
:100DD00042610A6942604A6882608968C16030BDC8
:100DE0003F801CF0416070477047F0B5002201273A
:100DF0004FF0030C0B6807FA02F52B40AB422CD1E5
:100E0000066853000CFA03F4A64306600E79D0F886
:100E100000E09E4046EA0E0606600E79012E01D0E3
:100E2000022E12D18668A64386604E79D0F808E07B
:100E30009E4046EA0E0686604668AE4346604568B8
:100E40008E799640B6B235434560C568A543C56006
:100E5000CC799C40C3681C43C460521C102AC9D37F
:100E6000F0BD4B07DB0E9A40C90810B500EB8100BE
:100E7000016A0F249C40A1430162016A114301628F
:100E800010BD01837047FEE77CB50121202000F0F2
:100E90003BF901208DF8040000228DF80620032183
:100EA0008DF80510074D4FF4C0648DF807000094CD
:100EB00069462846FFF799FF21462846FFF7E1FFDC
:100EC0007CBD000000140240FEE7704730B50F23E0
:100ED000C27801780125FAB1144A126801F1E021C3
:100EE00002F4E062C2F5E062C2F30722C2F1040438
:100EF000D3404278A24084781C401443220181F8F8
:100F00000024007800F01F018D404009800000F1AE
:100F1000E020C0F8005130BD01F01F0085404809B5
:100F2000800000F1E020C0F8805130BD0CED00E001
:100F30000249084302490860704700000000FA05B2
:100F40000CED00E0A0B1D0ED101AC0ED111A90ED3B
:100F50000F1A80ED101AC0ED060A80ED070A30EE78
:100F6000C00A80ED0F0A017829B101293BD078E051
:100F70009FED3D0A7047D0ED010A60EE801AC0ED8A
:100F8000091AD0ED0A0A90ED022A42EE000A30EE6C
:100F9000410AC0ED0A0A90ED0D2A80ED0E2A90ED6F
:100FA0000C2A80ED0D2A80ED0C0A90ED031A21EE3B
:100FB000001A80ED0B1A90ED050AF4EEC00AF1EE6E
:100FC00010FA09DCB1EE400AF4EEC00AF1EE10FAB4
:100FD00002D390ED0A0A01E080ED0A0A31EE800AA0
:100FE00030EE010A2BE070EE410A90ED012A60EE2E
:100FF000820AC0ED090A90ED022A22EE002A80ED55
:101000000A2AD0ED0D2A70EE820AC0ED0E2AD0ED2C
:101010000C2AC0ED0D2AF0EE002A01EE620A30EE35
:10102000210A80ED0C0A90ED031A21EE000A80EDF2
:101030000B0A30EE800AD0ED080A30EE200A80ED6F
:10104000080AD0ED040AB4EEE00AF1EE10FA06DC6C
:10105000F1EE600AB4EEE00AF1EE10FA01D2C0ED52
:10106000080A90ED080A704700000000002828D008
:10107000002A26D0017092ED001A80ED011A92ED3F
:10108000011A80ED021A92ED021A80ED031A80ED2A
:10109000040A9FED0C0AC0ED050A80ED0E0A80EDF2
:1010A0000D0A80ED0C0A80ED080A80ED0B0A80ED38
:1010B0000A0A80ED090A80ED110A80ED100A80ED20
:1010C0000F0A704700000000002819D09FED0D0A9C
:1010D00080ED110A80ED100A80ED0F0A80ED0E0AF6
:1010E00080ED0D0A80ED0C0A80ED0B0A80ED0A0AF6
:1010F00080ED090A80ED080A80ED060A80ED070AF6
:101100007047000000000000044A0029116801D067
:10111000014300E081431160704700003038024015
:10112000044A0029116801D0014300E081431160A5
:101130007047000040380240044A0029116801D07D
:10114000014300E0814311607047000020380240F5
:10115000044A0029116801D0014300E08143116075
:101160007047000044380240044A0029116801D049
:10117000014300E0814311607047000024380240C1
:1011800070B5204B1968204C11F00C0104D066108A
:10119000042903D0082903D004601BE0066019E08D
:1011A000184A121F1168C1F38055116801F03F0100
:1011B00015B1B6FBF1F101E0B4FBF1F1146812686E
:1011C000C4F388146143C2F30142521C5200B1FBC4
:1011D000F2F1016019680F2202EA11110B4A545C06
:1011E0000168E14041601C68072505EA9424145D0C
:1011F00021FA04F484601B6805EA5333D25CD140C1
:10120000C16070BD083802400024F4001C000020BA
:101210002DE9F0478A46804690B091460121464824
:10122000FFF772FF01211020FFF792FF012110202C
:10123000FFF79AFF00211020FFF796FF3F4D07228E
:1012400011462846FFF70DFE8020049002208DF8FD
:10125000140000248DF8164003208DF815008DF839
:10126000174004A92846FFF7C0FD354F384600F067
:101270000FFC2E1533480090ADF80440ADF808601F
:101280000425ADF80640ADF80A50ADF80C406946AB
:10129000384600F08BFC01224021384600F0EFFB7D
:1012A0001021384600F0DEFB012240F2244138468E
:1012B00000F063FC0121384600F0D7FB25208DF8B3
:1012C00000008DF801508DF8024001208DF80300D8
:1012D0006846FFF7FBFD1C4D2846FFF7A7FC70048E
:1012E0000090381DCDE902840190CDF81090CDE931
:1012F00005468015CDE908404FF44030CDE90A0499
:1013000007940C940D94694628460E94FFF740FD0F
:10131000002251462846FFF725FD01212846FFF708
:1013200017FD00212846FFF777FC01212846FFF72B
:1013300073FC10B0BDE8F0870200400000040240DA
:1013400000100140A086010040640240F0B5002872
:101350006BD0002969D00278437842EA0322C2F3B5
:101360000A050D8042788378D20842EA4312C2F31C
:101370000A034B808278C478920942EA8402047995
:1013800042EA8422C2F30A048C8002794679520828
:1013900042EAC612C2F30A02CA804679C6F30116AF
:1013A0008E724679B609CE728679C77946EA0726E3
:1013B0008E81067A477A46EA0726CE81867AC77AF0
:1013C00046EA07260E82067B8E74467BCE74867BA9
:1013D000C77B46EA07268E82067C407CA5F58065A1
:1013E0000D80A3F5806346EA00204B80A4F580645D
:1013F0008C80A2F58062CA80A0F5806008814FF4DD
:10140000117600204FF425747742654201EB4002CB
:10141000B2F90030B34201DB148002E0BB4200DCD1
:101420001580401C40B20428F0DBF0BD0CB5002252
:10143000274900920192086840F4803008604FF418
:10144000A043086800F4003001900098401C009010
:10145000019810B900989842F3D10868800334D5F8
:10146000012001901A484030026842F08052026028
:101470001848026842F44042026015480830026889
:101480000260026842F400420260026842F4A05224
:101490000260031F104A1A600A6842F080720A60F4
:1014A0000A689201FCD50D4940F205720A60016894
:1014B00021F003010160016841F00201016001684F
:1014C000C1F381010229FAD10CBD01920CBD0000CB
:1014D000003802400070004008544007003C0240C1
:1014E0004FF0E0210428086903D020F004000861CF
:1014F000704740F00400FAE710B502F00DFB012838
:1015000003D0BDE8104001F0FBBF10BD124810B57C
:10151000016841F4700101601048016841F0010167
:1015200001600E4A00210832116002680C4B1A401B
:101530000260031D0B4A1A60026822F480220260D6
:1015400006480C300160FFF771FF03494FF000605F
:101550008039086010BD000088ED00E000380240CE
:10156000FFFFF6FE1030002470B5048C24F0010457
:101570000484058B048C4FF6FF7606EA03131343AD
:1015800025F0F3052B4324F00A020A4342F001013F
:101590000383018470BDF0B5048C24F0100404842E
:1015A000078B068C4FF6FF7404EA011527F4734786
:1015B00004EA0331394304EA02220A4326F0A00177
:1015C000294341F0100102830184F0BD70B5174E2C
:1015D0000221304600F047F810B3154C134900259E
:1015E00094F90000243110B1012808D018E00D60F2
:1015F0000221304600F0A1F80120207010E00968B7
:10160000DFED0C0A00EE101A61600021B8EE400A0E
:10161000304620EE200A84ED020A00F08EF8257094
:101620003046BDE87040022100F010B8000C0040C8
:101630006054002096438B3C0029018802D041F081
:10164000800101E021F0800101807047C9430182DF
:1016500070470029018802D041F0010101E021F02A
:1016600001010180704702460020138A92890B42D3
:1016700002EA010202D0002A00D0012070472DE9C1
:10168000F0410C460E884988A2882389054616B386
:10169000042E28D0082E2E8C4FF6FF702BD026F467
:1016A00080562E84AF8B2E8C00EA022200EA013194
:1016B00027F473473A4300EA0330104326F42042EC
:1016C0000A4342F48051A8832984E1882846BDE872
:1016D000F04100F09BB8FFF747FFE1882846BDE8DE
:1016E000F04100F077B8FFF756FFE1882846BDE8E3
:1016F000F04100F077B826F480762E84AF8B2E8CE4
:1017000000EA012100EA0310104327F0F3073843F1
:1017100026F420620A4342F48071A8832984E18878
:101720002846BDE8F04100F069B8002A828901D05E
:101730000A4300E08A4382817047028C22F0020251
:101740000A4302847047000070B5028C22F4807254
:101750000284028C8388848B0D8824F073042543D3
:101760008E894FF6FF7422F4007204EA06261643AF
:101770004A8804EA02223243104EB04202D0104E90
:10178000B04215D122F40066CA8923F4405304EA1A
:101790000222324322F480668A8804EA022232431B
:1017A0000E8A04EA06161E434B8A04EA03133343E7
:1017B000838085838968C163028470BD0000014015
:1017C00000040140828B22F008020A4382837047A2
:1017D000C1637047028B22F00C020283028B0A4322
:1017E00002837047028B22F440620283028B4FF621
:1017F000FF7303EA01210A4302837047828B22F0C0
:101800000C028283828B0A4382837047828B22F48C
:1018100040628283828B4FF6FF7303EA01210A4301
:101820008283704730B50288164C174DA0420DD008
:10183000A8420BD0B0F1804F08D0144B984205D08D
:10184000134B984202D0134B984203D122F07003FD
:101850004A881A43104B984206D0104B984203D046
:1018600022F440730A891A4302804A68C2620A88D5
:101870000285A04201D0A84201D1897A01860121C6
:10188000818230BD0000014000040140000400409E
:1018900000080040000C0040001000400014004010
:1018A00070B5314C40F22551204600F047F920B187
:1018B0002046BDE8704000F0CFB940F224412046F8
:1018C00000F03CF900284ED0204600F0C5F9274C26
:1018D0002046FFF755FA264D264E00284FF000010E
:1018E000204621D0FFF798F92046FFF746FAC0F1CD
:1018F0002400288024212046FFF774FA206820F471
:101900000020206031462046FFF770F90121204673
:10191000FFF782F92888122825D1174901F13A00EA
:10192000BDE87040FFF712BDFFF776F92046FFF7DC
:1019300024FAC0F12400288024212046FFF752FA1F
:10194000206840F40020206031462046FFF74EF921
:1019500001212046FFF760F92888122803D10649A3
:1019600001F11600DCE770BD001001404064024048
:10197000A000002000003010005400202DE9F041AC
:10198000334C40F22551204600F0D8F820B12046D3
:10199000BDE8F04100F060B940F22441204600F07B
:1019A000CDF8002851D0204600F056F9294E304697
:1019B000FFF7E6F9274C284D883C284F00284FF0C8
:1019C0000001304622D0FFF727F93046FFF7D5F95E
:1019D000C0F11800288018213046FFF703FA54F8A8
:1019E000880F20F40020206039463046FFF7FEF8CB
:1019F00001213046FFF710F928880C2825D1184915
:101A000001F11800BDE8F04100F00EBAFFF704F94B
:101A10003046FFF7B2F9C0F118002880182130468F
:101A2000FFF7E0F954F8880F40F4002020603946B1
:101A30003046FFF7DBF801213046FFF7EDF8288844
:101A40000C2802D106490846DCE7BDE8F081000019
:101A50000044004088600240A200002000003010D6
:101A60006C540020C943018070470029818902D04D
:101A700041F4005101E021F4005181817047002AB6
:101A8000828A01D00A4300E08A43828270470000C4
:101A9000224910B5884206D101211020FFF764FBCE
:101AA0000021102020E01E49884202D101214C046F
:101AB00029E01C49884202D101218C0423E01A4903
:101AC000884202D10121CC041DE01849884202D18C
:101AD00001210C0517E01649884209D10121202077
:101AE000FFF742FB00212020BDE81040FFF73CBB80
:101AF0001049884202D101218C0704E00E49884236
:101B00000AD1012144052046FFF716FB2046BDE817
:101B100010400021FFF710BB10BD00000010014075
:101B20000044004000480040004C0040005000408D
:101B30000014014000780040007C004070B501F0C6
:101B40001F0501260024C1F3421306FA05F2012BFA
:101B50000FD0022B0FD0838A4FEA11210088134245
:101B600006FA01F600EA060001D000B10124204681
:101B700070BD8389F0E7038AEEE710B5C1F3421325
:101B800001F01F040121A140012B07D0022B07D037
:101B90001430002A026805D00A4304E00C30F8E74C
:101BA0001030F6E78A43026010BD00007FB504469E
:101BB000008A0D46C98820F4405001432182A08943
:101BC00041F20C618843A9882A8911436A8902433A
:101BD0001143A181A08A20F44071A8890843A08202
:101BE0006846FFF7CDFA1A48844202D01948844269
:101BF00001D1039800E00298A189090400EBC0011B
:101C000001EB0010296801D5490000E08900B0FB14
:101C1000F1F06422B0FBF2F109010B096FF0180535
:101C20006B4300EB8300A3891D044FF0320306D5FC
:101C300003EBC000B0FBF2F000F0070005E003EB9F
:101C40000010B0FBF2F000F00F00084320817FBDD0
:101C500000100140001401408088C0F30800704764
:101C6000FEE770474FF4967001F0D0F91E48FEF77A
:101C7000B5FD1D484168CA7A012A03D0897A012935
:101C800002D003E002210CE0012101704168897A51
:101C9000032901D1002101704168897A022901D10B
:101CA00003210170104C60782178884211D004F132
:101CB0003800FFF709FA04F18000FFF705FA04F194
:101CC000C800FFF701FA94ED050A84ED080A2078B0
:101CD00060700548FEF770FD0348FEF7C5FD022061
:101CE00001F094F9C5E70000B85400202DE9F04355
:101CF000894680468FB0174601214748FFF704FA0E
:101D000001214C042046FFF70BFA01212046FFF782
:101D10002BFA00212046FFF727FA404D0722062123
:101D20002846FFF79EF84020049002208DF814000A
:101D300000248DF8164003208DF815008DF817400B
:101D400004A92846FFF751F8354E3046FFF7A0FEAC
:101D50004FF4E1300090ADF80440ADF808400425A0
:101D6000ADF80640ADF80A50ADF80C406946304673
:101D7000FFF71CFF012240213046FFF780FE1021B3
:101D80003046FFF76FFE012240F224413046FFF754
:101D9000F4FE01213046FFF768FE26208DF8000092
:101DA0008DF801508DF8024001208DF8030068463F
:101DB000FFF78CF81B4D2846FEF738FF4FF0006008
:101DC0000090CDE90347301DCDE901080015CDE9AC
:101DD00005408010CDE908404FF44030CDE90A04B9
:101DE00007940C940D94694628460E94FEF7D0FF94
:101DF000002249462846FEF7B5FF01212846FEF796
:101E0000A7FF00212846FEF707FF01212846FEF71D
:101E100003FF0FB0BDE8F08308002000000C024073
:101E2000004400408860024030B5002850D00029AE
:101E30004ED002785B2A4BD102792C2A48D14279C4
:101E4000202A45D1427A5D2A42D1827A0D2A3FD199
:101E5000C27A0A2A3CD191ED0C0A81ED0E0A91ED6D
:101E60000D0A81ED0F0AC3784278303A02EBC204C2
:101E700004EB021203EB82048278164B02EB82021F
:101E800003EB4202224400EE102AF8EEC00A9FED56
:101E9000120A70EEC00AC1ED0C0A047A8279C07988
:101EA000303A02EBC20505EB021204EB820200EBB2
:101EB000800003EB4000104400EE900AF8EE600A48
:101EC00030EEC00ADFED050A30EEC00A81ED0D0AE2
:101ED00030BD0000F0FDFFFF0000C842000070436D
:101EE00010B504460420FFF7FBFA0A484FF47A7154
:101EF000047014FB01F1012242804FF0E0200269DE
:101F000042F0020202614161016941F00101016197
:101F100010BD00001400002070B54FF0E025002136
:101F20006C69094AAB6912785043AA699A42FCD09D
:101F300002D2A3EB020302E0A4EB020633441944ED
:101F400013468142F1D370BD1400002010B500F09B
:101F5000B7FD0449002008700121BDE81040880742
:101F6000FFF777BB6054002003490A885206FCD56E
:101F7000C2B28A80704700000010014000487047DC
:101F8000AC5400200048704760540020004870475F
:101F90006C540020004870470054002010B5FEF734
:101FA0000FFE00F037FE01F091F9002010BD000097
:101FB00002491822A1F11800FFF798BE84540020AE
:101FC0001CB501211020FFF79FF80420009001208C
:101FD0008DF8040000218DF8061003218DF80510FE
:101FE000054C8DF8070069462046FEF7FEFE0421E9
:101FF0002046FEF746FF1CBD001002403B4C012668
:10200000C4F888623A4F002519203D81B87032200B
:10201000F870787038704B2139717871B871F87137
:102020004FF47A783889401C00B23881192851DD84
:1020300097F9001001F1190290424EDD19329042D9
:1020400048DD97F90120114401F13202824244DA5D
:10205000193282423EDA97F9022002F14B030B4417
:1020600083423ADA02F164030B44834232DA97F98D
:1020700003301A44114401F1640282422DDA19320C
:10208000824227DA97F90420114401F17D0282424D
:1020900023DA193282421DDA97F90520114401F141
:1020A0009602824219DA1932824213DA97F906202F
:1020B000114401F1AF0282420FDA1932824209DA89
:1020C00097F90720114401F1C802824205DAE13193
:1020D000814202DBC4F8885201E0C4F888624045BE
:1020E00000DB3D811420FFF717FF9BE70000424211
:1020F000AC5400202DE9F041184E0F460446F56817
:102100003068001D00F0F8FD38B9306890F82C10E8
:1021100001208840316981433161601C07D137B1AA
:102120003168BDE8F0410E48091D00F01DBE306861
:102130002C44AC424460316805D2B06BBDE8F0413C
:10214000091D00F0F9BD706B091D00F0F5FDB06AC6
:10215000844200D2B462BDE8F08100002C0000206F
:10216000C40300202DE9F041054600F009FE2D4E84
:10217000B068401CB06030682B4F10B1706930B34C
:102180002BE03560B068012827D1002404EB8400DF
:1021900007EB800000F0C2FD641C202CF6D323481E
:1021A00000F0BCFD2148143000F0B8FD1F48283075
:1021B00000F0B4FD1D483C3000F0B0FD1B4850302D
:1021C00000F0ACFD194870631430B06305E030686E
:1021D000E96AC06A884200D83560706A0121401CF3
:1021E00070626864E86A326981401143316100EBD2
:1021F000800007EB8000291D00F0B6FD00F0FCFD1B
:10220000706900280CD03068E96AC06A884207D239
:1022100007494FF080500860BFF34F8FBFF36F8FB7
:10222000BDE8F0812C000020F400002074030020A1
:1022300004ED00E010B500F0A3FD0E4C2068A0B93D
:102240000D4800F06BFD0C48143000F067FD0A48A3
:10225000E0601430206100221021052001F066F9B1
:10226000206010B105A100F09DFEBDE8104000F017
:10227000C3BD000068000020D8030020546D7251D7
:102280000000000070B5124E124D1CE001F068F81D
:10229000306820B1002401F06DFDA4B901E00124F3
:1022A000F9E700F06DFDF068C468201D00F024FD22
:1022B000A868401EA8606868401E686000F09CFD29
:1022C000204600F052F868680028DFD170BD000099
:1022D000B00300202C00002030B4026C0B46002A12
:1022E0000BD0C1681144C1604468A14201D30168A8
:1022F000C16030BC1846FEF7C3B830BC70472DE94A
:10230000F041856B174604460026026C82B1C7B1C6
:10231000E068FEF7B5F8E168206C091AE160226810
:10232000914202D26168081AE060022F16D017E0CD
:102330002068A8B9606801F077FC0646002060605C
:102340000EE0A068FEF79CF8216CA0680844A0602D
:102350006168884204D32068A06001E005B16D1E69
:102360006D1CA5633046BDE8F08110B50446006BD6
:1023700000F074FD2046BDE8104000F06FBD000085
:1023800010484FF4A041420706D0C01D0D4920F06F
:102390000700411AC1F5A0410B4A00230144C2E9DC
:1023A00000030839103A21F0070111604B600B60FF
:1023B0000B1AC0E9001393604FF000405360D060E7
:1023C000704700000004002098000020074E4FF0E6
:1023D0008054074DFFF756FF30680128FAD92C606A
:1023E000BFF34F8FBFF36F8FF4E70000F4000020BE
:1023F00004ED00E02DE9F047DDE909840E461746BB
:10240000824691009946089DA522206BFEF77DF833
:102410006FF00301206B01EB8701084420F00707F0
:10242000780705D040F22B3219A11EA0FDF782FFDC
:1024300000202218315C82F83410315C11B1401C4C
:102440001028F6D3002684F84360202D00D31F25E2
:10245000E562C4E91356201D00F06BFC04F118007E
:1024600000F067FC2461C5F120006462A06166652C
:1024700084F858604A465146384600F003FB206015
:10248000B8F1000F01D0C8F80040BDE8F0870000A7
:102490002E2E5C4672656552544F535C7461736BAB
:1024A000732E63004572726F723A25732C25640D8A
:1024B0000A00000030B5114900E011460A68824266
:1024C000FBD34B685C18844203D1406818444860D1
:1024D000084643681C18944209D1084C103C2468F3
:1024E000A24209D052681A4442600A681268026027
:1024F000814200D0086030BD0460F9E798000020F8
:1025000070B5002441600B4D0061914206D8D11A8C
:102510008269914206D2011D286907E09A4203D2DE
:10252000994201D3012403E0011DE86800F004FC96
:10253000204670BD6800002010B5044600F020FC65
:10254000A06B20B1002400F057FC204610BD0124F0
:10255000F9E700002DE9F34100980F460026846C4E
:102560002CB940F6CE1216A11AA0FDF7E3FEA06B1F
:10257000E16B884205D340F6CF1211A115A0FDF7FB
:10258000D9FEA06BE16B88420CD294F945503A46D3
:1025900069462046FFF7B3FE0646681C05D06D1C51
:1025A00084F845503046BDE8FC81606A0028F9D0C7
:1025B00004F1240001F092FB0028F3D00126F1E79A
:1025C0002E2E5C4672656552544F535C717565756D
:1025D000652E63004572726F723A25732C25640D67
:1025E0000A000000F8B5054614480E46C068C068E9
:1025F000C468201D00F080FBE069012817D1A069A4
:102600002B46411932462046FFF77AFF78B1002069
:102610000346014600902A46204601F091FC30B95D
:1026200007494FF4027201F11800FDF783FE616A59
:1026300001B02046BDE8F0400847000068000020D7
:10264000A43E000870B586B02F4E53E001980028D4
:1026500006DADDE90301029A90470198002849DB78
:10266000039C606910B1201D00F046FB05A800F036
:10267000A7F8054601980A283CD2DFE800F00505D6
:10268000053B273805053B270298A169034601440D
:102690002A462046FFF734FF00282BD0616A2046E7
:1026A0008847E069012825D1002000900298A1699F
:1026B000002342181946204601F042FCD0B940F2EE
:1026C000213212A117A0FDF735FE13E00298A06198
:1026D00028B94FF44E720DA112A0FDF72BFEA06990
:1026E0002B4641191A462046FFF70AFF02E0204612
:1026F00000F0B4FB00231A4601A9306800F052FF35
:102700000028A3D106B070BD680000202E2E5C46C4
:1027100072656552544F535C74696D6572732E63B4
:10272000000000004572726F723A25732C25640D0B
:102730000A000000F8B50D46064600F011FE684696
:1027400000F03EF80446009810B101F013FBF8BD0C
:102750001148ADB101690968D9B10025311B2A467C
:10276000006800F031FC01F005FB0028EFD10B49B7
:102770004FF080500860BFF34F8FBFF36F8FF8BDED
:10278000A642EBD801F0F6FA21463046FFF72AFFC1
:10279000F8BD0125E2E700006800002004ED00E03C
:1027A0000648416B096829B1416BC968C968496825
:1027B000816270474FF0FF31FAE700002C000020E3
:1027C00070B5054601F0B6F9064E0446B06884427D
:1027D00003D200F009F8012000E000202860204624
:1027E000B46070BD68000020F8B5184E26E0C068DF
:1027F000C4680568201D00F07FFA616A204688479A
:10280000E06901281AD1A0692844A84206D92461A8
:102810006060211DF06800F08FFA0FE00020034691
:10282000014600902A46204601F08AFB30B908494B
:1028300040F2923201F11800FDF77CFDF06801686A
:102840000029D4D13169C6E90310F8BD6800002021
:10285000A43E000808484068401C05D040F20F1212
:1028600006A111A0FDF766FD502080F31188BFF38B
:102870004F8FBFF36F8FFEE77C0000202E2E5C464B
:1028800072656552544F535C706F727461626C650F
:102890005C525644535C41524D5F434D34465C702C
:1028A0006F72742E630000004572726F723A257366
:1028B0002C25640D0A000000084CE068016839B15D
:1028C000002139B10020FFF735FFFFF7BBFEF4E729
:1028D0000121F6E7C0680068F5E700006800002005
:1028E0002DE9F041044600F04BFA94F9455004F10B
:1028F000240610E0A06C20B100212046FFF72AFE3C
:1029000004E0606A48B1304601F0E8F908B100F02F
:1029100019FC6D1E6DB2002DECDC4FF0FF3684F813
:10292000456000F069FA00F02BFA94F9445004F184
:10293000100709E0206948B1384601F0CFF908B125
:1029400000F000FC6D1E6DB2002DF3DC84F84460D5
:10295000BDE8F04100F050BA2DE9F04105460026EF
:1029600000F0FEFC324F386808B9FFF709FDF8683F
:1029700005424FD1002D4DD0083568070BD005F02A
:102980000700C0F108000544680704D0BF2229A150
:1029900032A0FDF7CFFC002D3CD07868854239D8B5
:1029A000234910310846046801E021460446606866
:1029B000A84202D220680028F7D13868B84684427D
:1029C00028D00E682068086060680836401B102810
:1029D0000ED96719780704D0EC2216A11FA0FDF7C5
:1029E000A9FC6068401B786038466560FFF762FDAF
:1029F0006168D8F804004246401AC8F80400D8F8C4
:102A00000830984200D29060D8F80C0001430020B2
:102A1000C4E9000101F0AEF9700705D04FF49672D9
:102A200004A10EA0FDF786FC3046BDE8F081000051
:102A3000880000202E2E5C4672656552544F535C10
:102A4000706F727461626C655C4D656D4D616E672F
:102A50005C686561705F342E630000004572726FC0
:102A6000723A25732C25640D0A0000000449086899
:102A700018B10868026D521C0265086870470000B2
:102A80002C00002010B5031F4FF080741C601B1F2A
:102A900021F001011960191F044B0B6014390A6001
:102AA000091F6FF0020244380A6010BD5528000863
:102AB00002492422A1F12400FEF7AABB3A540020C7
:102AC0002DE9F04301218FB00846FEF71DFB0226D9
:102AD0008DF8046000248DF806400327DFF82C9160
:102AE0004FF004088DF805700125CDF800808DF8B1
:102AF000075069464846FEF778F901220221484608
:102B0000FEF7AFF901210846FEF7FEFA8DF80460E2
:102B10008DF805708DF8064000958DF807406946E0
:102B20004846FEF762F9022200214846FEF799F96D
:102B300001210846FEF7F4FA01210846FEF7FCFAE7
:102B400000210120FEF7F8FA53264EF65F27ADF874
:102B500008604FF080490397ADF80A40ADF8104087
:102B600002A94846FEF75EFE6020ADF82000ADF8F1
:102B70002250ADF82C4008A94846FEF7E5FD082193
:102B80004846FEF71FFE01214846FEF755FD142179
:102B90004846FEF71DFE00214846FEF75AFD01217A
:102BA0000820FEF7BDFAADF80860194E0397ADF89E
:102BB0000A40ADF8104002A93046FEF733FEADF8EA
:102BC0001440ADF81850ADF81640ADF81A40ADF805
:102BD0001C4005A93046FEF752FD01220221304675
:102BE000FEF7A3FD32208DF834008DF835808DF886
:102BF00036408DF837500DA8FEF768F901213046B0
:102C0000FEF727FD0FB0BDE8F08300000000024092
:102C1000000C00401CB505490120CDE9000100234E
:102C2000802203A1054800F04BFF1CBDA40000203A
:102C300073746172745F7461736B0000412C0008DF
:102C40001CB500F09DF815490320CDE900014FF4B3
:102C500080740023224612A1144800F031FF0F496E
:102C60000220091FCDE900010023224610A11348CC
:102C700000F026FF09490420091DCDE900010023C9
:102C800022460FA1114800F01BFF044808380068D5
:102C900000F0F2F9BDE81C4000F0AEB8AC00002036
:102CA000757365725F7461736B000000D12C00084E
:102CB00070706D5F7461736B00000000FD1F000891
:102CC000616374696F6E5F7461736B00651C0008EB
:102CD000084C4FF47A75D4F8A402C043C4F8A40297
:102CE000D4F8A802C043C4F8A802284600F08EF920
:102CF000F1E7000000804242D0E9013201699A60A8
:102D0000D0E901235A604A68824201D182684A6050
:102D1000002202610868401E0860704700F1080147
:102D20004FF0FF32C0E90112C16001610021016072
:102D3000704700210161704730B50C68621C02D0F9
:102D400000F1080202E0026904E01A4653681D68B7
:102D5000A542FAD953684B6099608A605160086156
:102D60000168491C016030BD42684A6093688B600D
:102D700093685960916008610168491C016070475F
:102D8000502080F31188BFF34F8FBFF36F8F094935
:102D90004868401C486001280AD10748006810F0C4
:102DA000FF0F05D040F2B91204A10FA0FDF7C2BA7F
:102DB000704700007C00002004ED00E02E2E5C46F1
:102DC00072656552544F535C706F727461626C65CA
:102DD0005C525644535C41524D5F434D34465C70E7
:102DE0006F72742E630000004572726F723A257321
:102DF0002C25640D0A00000010B5084C606828B945
:102E00004FF4E07206A111A0FDF794FA6068401E2D
:102E1000606001D180F3118810BD00007C000020AB
:102E20002E2E5C4672656552544F535C706F7274FF
:102E300061626C655C525644535C41524D5F434D38
:102E400034465C706F72742E630000004572726FBE
:102E5000723A25732C25640D0A00000070B5002815
:102E60002AD0164DA0F108046068E968084205D12F
:102E70004FF4A07212A11CA0FDF75CFA206828B1E3
:102E800040F241120EA118A0FDF754FA6068E968FB
:102E9000084211D02268002A0ED18843606000F0F9
:102EA0005FFA60686968084468602046FFF702FBC3
:102EB000BDE8704000F05EBF70BD000088000020DB
:102EC0002E2E5C4672656552544F535C706F72745F
:102ED00061626C655C4D656D4D616E675C686561D6
:102EE000705F342E630000004572726F723A257372
:102EF0002C25640D0A00000006484FF47A71006822
:102F0000B0FBF1F14FF0E020491E41610721016162
:102F1000704700000000002010B5FDF7E5F9104CE7
:102F200010280CD300F1E02090F8F00321788842BB
:102F300005D24FF440720BA115A0FDF7FBF918481C
:102F40000068A16800F4E060884207D9BDE810403D
:102F50004FF4447203A10EA0FDF7ECB910BD0000C0
:102F60007C0000202E2E5C4672656552544F535CE7
:102F7000706F727461626C655C525644535C41526E
:102F80004D5F434D34465C706F72742E63000000D9
:102F90004572726F723A25732C25640D0A00000089
:102FA0000CED00E010B5074B002253F832401CB185
:102FB000521C082AF9D310BD43F8321003EBC201AA
:102FC000486010BDB400002070B515460E4604469A
:102FD000FFF7D6FE94F944100020491C01D184F873
:102FE000440094F94510491C01D184F84500FFF7CD
:102FF00003FFA06B28B92A46314604F1240000F0F3
:10300000D1F82046BDE87040FFF76ABC10B5040057
:1030100012D00E49096B29B140F2CF420CA111A088
:10302000FDF788F900F09CF900212046FFF762F8CF
:1030300000F0A0FE002807D10E494FF08050086034
:10304000BFF34F8FBFF36F8F10BD00002C00002027
:103050002E2E5C4672656552544F535C7461736BDF
:10306000732E63004572726F723A25732C25640DBE
:103070000A00000004ED00E070B50446FFF780FE92
:10308000234D04B92C68201DFFF736FE58B9E06ABD
:10309000204A00EB800152F8211021B90121814022
:1030A000286988432861A06A18B104F11800FFF765
:1030B00023FE686A401C68622868844207D1211D8B
:1030C0001548FFF751FE6868401C686007E0A86873
:1030D000401EA8602046FFF748F9FFF761FBFFF7A5
:1030E0008BFE6869002812D0286884420FD1286BB3
:1030F00028B140F2654209A10DA0FDF71BF9104966
:103100004FF080500860BFF34F8FBFF36F8F70BDDB
:103110002C000020F4000020B00300202E2E5C467E
:1031200072656552544F535C7461736B732E630008
:103130004572726F723A25732C25640D0A000000E7
:1031400004ED00E001490120C86170472C00002017
:1031500070B50D46040005D140F6063207A10CA05B
:10316000FDF7E8F80E48016820461831FFF7E4FD46
:103170002846BDE870400121FEF7BCBF2E2E5C46FC
:1031800072656552544F535C7461736B732E6300A8
:103190004572726F723A25732C25640D0A00000087
:1031A0002C00002070B514460E46050005D140F6EF
:1031B000313209A10DA0FDF7BDF81048016828467D
:1031C0001831FFF7D1FD0CB14FF0FF3621463046E4
:1031D000BDE87040FEF78EBF2E2E5C4672656552CC
:1031E000544F535C7461736B732E63004572726F3E
:1031F000723A25732C25640D0A0000002C00002073
:1032000070B5040039D01D4DE06A2968C96A88424A
:1032100033D2A069002804DB2868C06AC0F120000E
:10322000A061E06A164E00EB8000616906EB800049
:1032300081421FD1201DFFF75FFD012150B9E06AD7
:1032400000EB800256F8222022B92A6901FA00F028
:1032500082432A612868C06AE0622A69814011437A
:10326000296100EB800006EB8000211DBDE8704065
:10327000FFF77ABD2868C06AE06270BD2C000020AC
:10328000F400002010B5040005D140F6C13205A1BC
:1032900009A0FDF74FF80C48016A2160C068606022
:1032A00010BD00002E2E5C4672656552544F535C73
:1032B0007461736B732E63004572726F723A25737B
:1032C0002C25640D0A0000002C0000201CB51748B6
:1032D0000024CDE900402346822215A1164800F0C3
:1032E000EFFB012803D100F0F1FD01280AD0401CBA
:1032F0001BD102B040F28472BDE810400FA114A0AF
:10330000FDF718B8502080F31188BFF34F8FBFF33B
:103310006F8F06484FF0FF312C38816201214161E7
:10332000C460BDE81C4000F061B81CBD580000201E
:1033300049444C4500000000CD2300082E2E5C4679
:1033400072656552544F535C7461736B732E6300E6
:103350004572726F723A25732C25640D0A000000C5
:103360000248016B491C0163704700002C000020DB
:1033700070B5134D286B10B10120E86170BD0020BD
:10338000E86128690F4EB0FA80F0C0F11F0000EB31
:10339000800456F8240028B940F6F6220AA10FA0AE
:1033A000FCF7C8FF06EB840000F108024168496899
:1033B0004160914201D149684160C868286070BD90
:1033C0002C000020F40000202E2E5C467265655211
:1033D000544F535C7461736B732E63004572726F4C
:1033E000723A25732C25640D0A0000001CB5304C80
:1033F00020683049884205D140F259122EA139A0E7
:10340000FCF798FF20682B49491E884205D14FF4EC
:10341000AD7229A133A0FCF78DFF364C20780190C6
:10342000FF20207020788DF800009DF800009DF8A6
:10343000001000F0F000884205D040F273121EA187
:1034400028A0FCF777FF9DF800002B4A00F0500001
:1034500010700720906007E09068401E90609DF813
:10346000000040008DF800009DF800000006F3D435
:10347000107A000200F4E0609060019820700C481F
:103480002030016841F470010160016841F0704131
:103490000160FFF731FD00205060FCF7EDFE17489A
:1034A000016841F040410160FCF7D6FE00201CBDE0
:1034B00000ED00E071C20F412E2E5C467265655230
:1034C000544F535C706F727461626C655C52564409
:1034D000535C41524D5F434D34465C706F72742EA5
:1034E000630000004572726F723A25732C25640DDB
:1034F0000A00000000E400E07C00002034EF00E05F
:1035000010B5502080F31188BFF34F8FBFF36F8F3A
:1035100000F016FB18B104494FF0805008600020FD
:1035200080F3118810BD000004ED00E02DE9F041AA
:1035300017460E46050005D14FF4C47210A115A020
:10354000FCF7F8FEBEB105FB06F05430FFF704FAB5
:1035500004000ED004F154007EB12060C4E90F567F
:103560002046012100F0E0F884F850700021204648
:10357000A164BDE8F0810020E7E72460EEE70000E9
:103580002E2E5C4672656552544F535C717565759D
:10359000652E63004572726F723A25732C25640D97
:1035A0000A0000002DE9FF4F83B09B468A460400C5
:1035B0004FF0000605D140F2DC4251A155A0FCF7C6
:1035C000B9FEBAF1000F07D1206C28B140F2DD42FC
:1035D0004BA150A0FCF7AEFE00F09EFA38B905985A
:1035E00028B14FF49C6246A14AA0FCF7A3FE4FF01D
:1035F00000094FF08057DFF82C81FFF7C1FBA56B66
:1036000045B351462046E668FEF766FEBBF1000F63
:1036100013D0E660606A50B104F1240000F05EFB54
:1036200028B1C8F80070BFF34F8FBFF36F8FFFF75B
:10363000E3FB012007B0BDE8F08F6D1EA563206895
:1036400010B9FFF713FA606020690028EFD004F189
:103650001000E3E7059808B11EB106E0FFF7CCFBC8
:1036600027E06846FFF70EFE0126FFF7C5FBFFF7D0
:1036700077FEFFF785FB94F94400401C01D184F8E4
:10368000449094F94500401C01D184F84590FFF71F
:10369000B3FB05A9684600F0CFF9002820460AD000
:1036A000FFF71EF900F066FB2046FEF745FF0028F5
:1036B000A3D00020BEE7FEF73FFFD8B1206830B9A5
:1036C000FFF75EFB6068FFF79BFDFFF795FB04F1DA
:1036D00024000599FFF73CFD2046FFF701F900F0B3
:1036E00049FB002889D1C8F80070BFF34F8FBFF3A2
:1036F0006F8F82E72046FFF7F3F800F03BFB7CE793
:103700002E2E5C4672656552544F535C717565751B
:10371000652E63004572726F723A25732C25640D15
:103720000A00000004ED00E070B50D46040005D16C
:1037300040F21B121CA121A0FCF7FCFDFFF720FBAF
:10374000D4E90F20216802FB001161600021A16310
:103750002168A1600A46D4E90F01401E00FB012147
:10376000E16021464FF0FF3001F8440F487004F14A
:1037700010004DB1FFF7D2FA04F12400FFF7CEFAA2
:10378000FFF73AFB012070BD21690029F8D000F055
:10379000A5FA0028F4D00D494FF080500860BFF31F
:1037A0004F8FBFF36F8FEBE72E2E5C46726565522D
:1037B000544F535C71756575652E63004572726F69
:1037C000723A25732C25640D0A00000004ED00E018
:1037D0002DE9FF4F83B099468B4604004FF0000659
:1037E00005D140F2D92252A156A0FCF7A3FDBBF1AE
:1037F000000F07D1206C28B140F2DA224CA151A071
:10380000FCF798FDB9F1020F08D1E06B012805D053
:1038100040F2DB2246A14BA0FCF78CFD00F07CF9C6
:1038200038B9059828B140F2DE2241A145A0FCF745
:1038300081FD4FF0000A4FF08057DFF81881FFF745
:103840009FFAA06BE16B884206D3B9F1020F03D057
:10385000059800B316B325E04A4659462046FEF7C0
:103860004EFDA16C21B149462046FEF773FE05E0EE
:10387000616A19B104F1240000F030FA28B1C8F8E7
:103880000070BFF34F8FBFF36F8FFFF7B5FA0120C2
:1038900007B0BDE8F08FFFF7AFFA21E06846FFF709
:1038A000F1FC0126FFF7A8FAFFF75AFDFFF768FAC7
:1038B00094F94400401C01D184F844A094F94500D7
:1038C000401C01D184F845A0FFF796FA05A9684687
:1038D00000F0B2F830B12046FFF702F800F04AFAE3
:1038E0000020D5E7FFF74CFAA06BE16B884201D1CD
:1038F000012500E00025FFF77FFA95B104F11000E3
:103900000599FFF725FC2046FEF7EAFF00F032FAA2
:10391000002894D1C8F80070BFF34F8FBFF36F8FAA
:103920008DE72046FEF7DCFF00F024FA87E7000071
:103930002E2E5C4672656552544F535C71756575E9
:10394000652E63004572726F723A25732C25640DE3
:103950000A00000004ED00E02DE9F0479846154606
:103960008946040005D140F29F322AA12EA0FCF71F
:10397000E1FCB9F1000F07D1206C28B14FF4687257
:1039800024A129A0FCF7D6FCB8F1020F08D1E06B06
:10399000012805D040F2A1321EA123A0FCF7CAFCE9
:1039A000FFF7BAFA5020EFF3118780F31188BFF3C5
:1039B0004F8FBFF36F8FA06BE16B884207D3B8F1D5
:1039C000020F04D0002087F31188BDE8F08794F936
:1039D0004560424649462046FEF791FC701C04D0E3
:1039E000761C84F845600120EDE7A06C012620B12B
:1039F00041462046FEF7AEFD06E0606A0028F2D0A0
:103A000004F1240000F06AF90028ECD0002DEAD07F
:103A10002E60E8E72E2E5C4672656552544F535C6B
:103A200071756575652E63004572726F723A257304
:103A30002C25640D0A00000070B50D46040005D168
:103A400040F6CB3214A119A0FCF774FC2DB940F656
:103A5000CC3211A115A0FCF76DFCFFF791F9174AC4
:103A6000D06829684B1C0FD02368126A934202D099
:103A7000626882420AD96268801A884206D2081AAD
:103A800028602046FFF7FEFB002400E00124FFF73A
:103A9000B3F9204670BD00002E2E5C46726565525B
:103AA000544F535C7461736B732E63004572726F75
:103AB000723A25732C25640D0A0000002C000020AA
:103AC0002DE9FF5F8346DDE90E87994616468A4653
:103AD0009000FEF741FF05001AD05C20FEF73CFF86
:103AE000040012D025630021CDE90241CDE9008711
:103AF0004B46324651465846FEF77CFC2046FEF7C0
:103B000031FB012004B0BDE8F09F2846FFF7A6F97D
:103B10004FF0FF30F6E700000548416919B1006B2E
:103B200018B1002070470120704702207047000044
:103B30002C0000200148C068704700002C000020C5
:103B40002DE9F0412D4F0026386B40B1B869401C7B
:103B5000B861F86900B101263046BDE8F081FD6822
:103B60006D1CFD6011D1786B006828B140F6D91248
:103B700023A128A0FCF7DEFB786BB96B7963B863EF
:103B8000386A401C3862FEF70BFEB86ADFF8948092
:103B9000854209D3786B006880B1786BC068C468CF
:103BA000606885420DD2B8623868C06A00EB800157
:103BB00058F821000128CCD90126CAE74FF0FF3080
:103BC000F1E7201DFFF798F8A06A18B104F118007A
:103BD000FFF792F8E06A01213A69814011433961A7
:103BE00000EB800108EB8100211DFFF7BDF8E06AC2
:103BF0003968C96A8842CDD30126CBE72C00002062
:103C00002E2E5C4672656552544F535C7461736B23
:103C1000732E63004572726F723A25732C25640D02
:103C20000A000000F400002070B504004FF0000608
:103C30003CD01F4D2868844205D040F6C7621DA1C4
:103C400021A0FCF777FB206D28B940F6C96219A1C5
:103C50001DA0FCF76FFB206D401E2065E26CE16A41
:103C6000914223D010BB201DFFF746F81A490122CC
:103C700050B9E06A00EB800351F8233023B92B6977
:103C800002FA00F083432B61E06CE062C0F1200097
:103C9000A061E06A2B6982401A432A6100EB800030
:103CA00001EB8000211DFFF75FF80126304670BD53
:103CB0002C0000202E2E5C4672656552544F535CDA
:103CC0007461736B732E63004572726F723A257361
:103CD0002C25640D0A000000F40000202DE9F041BD
:103CE000C068C4682CB940F6613216A11AA0FCF76E
:103CF00021FB04F118000746FEF7FEFF1A4D286B62
:103D0000012660B139461948FFF72EF8E06A2968A4
:103D1000C96A884213D90120EE61BDE8F081201DF7
:103D2000FEF7EAFFE06A2A6906FA00F11143296109
:103D30000F4900EB800001EB8000211DE4E700202B
:103D4000EBE700002E2E5C4672656552544F535CC3
:103D50007461736B732E63004572726F723A2573D0
:103D60002C25640D0A0000002C0000209C0300207C
:103D7000F40000202DE9F0472B4D00242746286B46
:103D800028B94FF4FD6229A12DA0FCF7D3FAFEF764
:103D9000F7FF286B401E2863286BE8BBA8682C49F6
:103DA0000126C8B3A1F52A798846D8F80010E9B1F0
:103DB000D8F80C00C46804F11800FEF79DFF201D20
:103DC000FEF79AFFE06A2A6906FA00F111432961B9
:103DD00000EB800109EB8100211DFEF7C5FFE06AC1
:103DE0002968C96A8842E0D3EE61DEE70CB1FEF7CC
:103DF000D7FCAC693CB1FFF7A3FE00B1EE61641ED5
:103E0000F9D10020A861E86930B1124901273807CB
:103E10000860BFF34F8F00E001E0BFF36F8FFEF744
:103E2000EBFF3846BDE8F0872C0000202E2E5C46C4
:103E300072656552544F535C7461736B732E6300EB
:103E40004572726F723A25732C25640D0A000000CA
:103E50009C03002004ED00E02DE9F0470746994659
:103E600016460D462C20DDF820A0FEF775FD040057
:103E700014D0B8464F46D1462DB94FF4C67209A1A9
:103E80000EA0FCF757FAFEF7D5F904F11801C4F8B3
:103E9000008081E8E002201DFEF74BFF2046BDE8D0
:103EA000F08700002E2E5C4672656552544F535CBD
:103EB00074696D6572732E63000000004572726F45
:103EC000723A25732C25640D0A0000001CB50024ED
:103ED000FEF7B0F90C48006868B10B491F20091DB6
:103EE000CDE9000100234FF4827208A10948FFF7D1
:103EF000E7FD040005D140F2331207A10CA0FCF746
:103F000019FA20461CBD000068000020546D722084
:103F100053766300B92800082E2E5C467265655200
:103F2000544F535C74696D6572732E63000000001A
:103F30004572726F723A25732C25640D0A000000D9
:103F40002DE9FF47DDF830A0994690460D46060062
:103F50004FF0000705D14FF4D37212A117A0FCF760
:103F6000E9F91A4C206880B1CDE900580296062D77
:103F700011DAFFF7D1FD02284FF0000309D000222B
:103F800069462068FFF724FC074604B03846BDE8C0
:103F9000F0875246F4E700234A466946FFF7DCFC07
:103FA000F2E700002E2E5C4672656552544F535C5A
:103FB00074696D6572732E63000000004572726F44
:103FC000723A25732C25640D0A0000006800002059
:103FD0004FF04070E1EE100A70470000CDCCCC3DB0
:103FE000000000000000FA44CDCCCC3D00000000F1
:103FF0000000FA449A99993E0000000000007A45BA
:104000002040000800000020B4000000C4010008A7
:10401000D4400008B4000020745B0000E0010008F8
:10402000007A030A000000000000000001020304FF
:104030000607080900000000000000000000000062
:10404000010203040102030406070809000000003E
:104050000000000000000000000000000000000060
:104060000000000000000000000000000000000050
:104070000000000000000000000000000000000040
:104080000000000000000000000000000000000030
:104090000000000000000000000000000000000020
:1040A000AAAAAAAA00000000000000000000000068
:1040B0000000000000000000000000000000000000
:1040C00000000000000000000000000000000000F0
:0440D00000000000EC
:040000050800018965
:00000001FF
